{
  "_format": "hh-sol-artifact-1",
  "contractName": "Muyu",
  "sourceName": "contracts/Muyu.sol",
  "abi": [
    {
      "inputs": [],
      "stateMutability": "nonpayable",
      "type": "constructor"
    },
    {
      "anonymous": false,
      "inputs": [
        {
          "indexed": true,
          "internalType": "address",
          "name": "owner",
          "type": "address"
        },
        {
          "indexed": true,
          "internalType": "address",
          "name": "approved",
          "type": "address"
        },
        {
          "indexed": true,
          "internalType": "uint256",
          "name": "tokenId",
          "type": "uint256"
        }
      ],
      "name": "Approval",
      "type": "event"
    },
    {
      "anonymous": false,
      "inputs": [
        {
          "indexed": true,
          "internalType": "address",
          "name": "owner",
          "type": "address"
        },
        {
          "indexed": true,
          "internalType": "address",
          "name": "operator",
          "type": "address"
        },
        {
          "indexed": false,
          "internalType": "bool",
          "name": "approved",
          "type": "bool"
        }
      ],
      "name": "ApprovalForAll",
      "type": "event"
    },
    {
      "anonymous": false,
      "inputs": [
        {
          "indexed": false,
          "internalType": "uint256",
          "name": "_fromTokenId",
          "type": "uint256"
        },
        {
          "indexed": false,
          "internalType": "uint256",
          "name": "_toTokenId",
          "type": "uint256"
        }
      ],
      "name": "BatchMetadataUpdate",
      "type": "event"
    },
    {
      "anonymous": false,
      "inputs": [
        {
          "indexed": false,
          "internalType": "uint256",
          "name": "_tokenId",
          "type": "uint256"
        }
      ],
      "name": "MetadataUpdate",
      "type": "event"
    },
    {
      "anonymous": false,
      "inputs": [
        {
          "indexed": true,
          "internalType": "address",
          "name": "from",
          "type": "address"
        },
        {
          "indexed": true,
          "internalType": "address",
          "name": "to",
          "type": "address"
        },
        {
          "indexed": true,
          "internalType": "uint256",
          "name": "tokenId",
          "type": "uint256"
        }
      ],
      "name": "Transfer",
      "type": "event"
    },
    {
      "inputs": [
        {
          "internalType": "address",
          "name": "to",
          "type": "address"
        },
        {
          "internalType": "uint256",
          "name": "tokenId",
          "type": "uint256"
        }
      ],
      "name": "approve",
      "outputs": [],
      "stateMutability": "nonpayable",
      "type": "function"
    },
    {
      "inputs": [
        {
          "internalType": "address",
          "name": "owner",
          "type": "address"
        }
      ],
      "name": "balanceOf",
      "outputs": [
        {
          "internalType": "uint256",
          "name": "",
          "type": "uint256"
        }
      ],
      "stateMutability": "view",
      "type": "function"
    },
    {
      "inputs": [
        {
          "internalType": "uint256",
          "name": "tokenId",
          "type": "uint256"
        }
      ],
      "name": "getApproved",
      "outputs": [
        {
          "internalType": "address",
          "name": "",
          "type": "address"
        }
      ],
      "stateMutability": "view",
      "type": "function"
    },
    {
      "inputs": [
        {
          "internalType": "address",
          "name": "owner",
          "type": "address"
        },
        {
          "internalType": "address",
          "name": "operator",
          "type": "address"
        }
      ],
      "name": "isApprovedForAll",
      "outputs": [
        {
          "internalType": "bool",
          "name": "",
          "type": "bool"
        }
      ],
      "stateMutability": "view",
      "type": "function"
    },
    {
      "inputs": [],
      "name": "name",
      "outputs": [
        {
          "internalType": "string",
          "name": "",
          "type": "string"
        }
      ],
      "stateMutability": "view",
      "type": "function"
    },
    {
      "inputs": [
        {
          "internalType": "uint256",
          "name": "tokenId",
          "type": "uint256"
        }
      ],
      "name": "ownerOf",
      "outputs": [
        {
          "internalType": "address",
          "name": "",
          "type": "address"
        }
      ],
      "stateMutability": "view",
      "type": "function"
    },
    {
      "inputs": [
        {
          "internalType": "address",
          "name": "to",
          "type": "address"
        },
        {
          "internalType": "uint256",
          "name": "tokenId",
          "type": "uint256"
        },
        {
          "internalType": "string",
          "name": "uri",
          "type": "string"
        }
      ],
      "name": "safeMint",
      "outputs": [],
      "stateMutability": "nonpayable",
      "type": "function"
    },
    {
      "inputs": [
        {
          "internalType": "address",
          "name": "from",
          "type": "address"
        },
        {
          "internalType": "address",
          "name": "to",
          "type": "address"
        },
        {
          "internalType": "uint256",
          "name": "tokenId",
          "type": "uint256"
        }
      ],
      "name": "safeTransferFrom",
      "outputs": [],
      "stateMutability": "nonpayable",
      "type": "function"
    },
    {
      "inputs": [
        {
          "internalType": "address",
          "name": "from",
          "type": "address"
        },
        {
          "internalType": "address",
          "name": "to",
          "type": "address"
        },
        {
          "internalType": "uint256",
          "name": "tokenId",
          "type": "uint256"
        },
        {
          "internalType": "bytes",
          "name": "data",
          "type": "bytes"
        }
      ],
      "name": "safeTransferFrom",
      "outputs": [],
      "stateMutability": "nonpayable",
      "type": "function"
    },
    {
      "inputs": [
        {
          "internalType": "address",
          "name": "operator",
          "type": "address"
        },
        {
          "internalType": "bool",
          "name": "approved",
          "type": "bool"
        }
      ],
      "name": "setApprovalForAll",
      "outputs": [],
      "stateMutability": "nonpayable",
      "type": "function"
    },
    {
      "inputs": [
        {
          "internalType": "bytes4",
          "name": "interfaceId",
          "type": "bytes4"
        }
      ],
      "name": "supportsInterface",
      "outputs": [
        {
          "internalType": "bool",
          "name": "",
          "type": "bool"
        }
      ],
      "stateMutability": "view",
      "type": "function"
    },
    {
      "inputs": [],
      "name": "symbol",
      "outputs": [
        {
          "internalType": "string",
          "name": "",
          "type": "string"
        }
      ],
      "stateMutability": "view",
      "type": "function"
    },
    {
      "inputs": [
        {
          "internalType": "uint256",
          "name": "tokenId",
          "type": "uint256"
        }
      ],
      "name": "tokenURI",
      "outputs": [
        {
          "internalType": "string",
          "name": "",
          "type": "string"
        }
      ],
      "stateMutability": "view",
      "type": "function"
    },
    {
      "inputs": [
        {
          "internalType": "address",
          "name": "from",
          "type": "address"
        },
        {
          "internalType": "address",
          "name": "to",
          "type": "address"
        },
        {
          "internalType": "uint256",
          "name": "tokenId",
          "type": "uint256"
        }
      ],
      "name": "transferFrom",
      "outputs": [],
      "stateMutability": "nonpayable",
      "type": "function"
    }
  ],
  "bytecode": "0x60806040523480156200001157600080fd5b506040518060400160405280600981526020017f476f6e6764654e465400000000000000000000000000000000000000000000008152506040518060400160405280600381526020017f474445000000000000000000000000000000000000000000000000000000000081525081600090816200008f919062000324565b508060019081620000a1919062000324565b5050506200040b565b600081519050919050565b7f4e487b7100000000000000000000000000000000000000000000000000000000600052604160045260246000fd5b7f4e487b7100000000000000000000000000000000000000000000000000000000600052602260045260246000fd5b600060028204905060018216806200012c57607f821691505b602082108103620001425762000141620000e4565b5b50919050565b60008190508160005260206000209050919050565b60006020601f8301049050919050565b600082821b905092915050565b600060088302620001ac7fffffffffffffffffffffffffffffffffffffffffffffffffffffffffffffffff826200016d565b620001b886836200016d565b95508019841693508086168417925050509392505050565b6000819050919050565b6000819050919050565b600062000205620001ff620001f984620001d0565b620001da565b620001d0565b9050919050565b6000819050919050565b6200022183620001e4565b6200023962000230826200020c565b8484546200017a565b825550505050565b600090565b6200025062000241565b6200025d81848462000216565b505050565b5b8181101562000285576200027960008262000246565b60018101905062000263565b5050565b601f821115620002d4576200029e8162000148565b620002a9846200015d565b81016020851015620002b9578190505b620002d1620002c8856200015d565b83018262000262565b50505b505050565b600082821c905092915050565b6000620002f960001984600802620002d9565b1980831691505092915050565b6000620003148383620002e6565b9150826002028217905092915050565b6200032f82620000aa565b67ffffffffffffffff8111156200034b576200034a620000b5565b5b62000357825462000113565b6200036482828562000289565b600060209050601f8311600181146200039c576000841562000387578287015190505b62000393858262000306565b86555062000403565b601f198416620003ac8662000148565b60005b82811015620003d657848901518255600182019150602085019450602081019050620003af565b86831015620003f65784890151620003f2601f891682620002e6565b8355505b6001600288020188555050505b505050505050565b612c8f806200041b6000396000f3fe608060405234801561001057600080fd5b50600436106100ea5760003560e01c806370a082311161008c578063b88d4fde11610066578063b88d4fde1461025b578063c87b56dd14610277578063cd279c7c146102a7578063e985e9c5146102c3576100ea565b806370a08231146101f157806395d89b4114610221578063a22cb4651461023f576100ea565b8063095ea7b3116100c8578063095ea7b31461016d57806323b872dd1461018957806342842e0e146101a55780636352211e146101c1576100ea565b806301ffc9a7146100ef57806306fdde031461011f578063081812fc1461013d575b600080fd5b61010960048036038101906101049190611b3c565b6102f3565b6040516101169190611b84565b60405180910390f35b610127610305565b6040516101349190611c2f565b60405180910390f35b61015760048036038101906101529190611c87565b610397565b6040516101649190611cf5565b60405180910390f35b61018760048036038101906101829190611d3c565b6103dd565b005b6101a3600480360381019061019e9190611d7c565b6104f4565b005b6101bf60048036038101906101ba9190611d7c565b610554565b005b6101db60048036038101906101d69190611c87565b610574565b6040516101e89190611cf5565b60405180910390f35b61020b60048036038101906102069190611dcf565b6105fa565b6040516102189190611e0b565b60405180910390f35b6102296106b1565b6040516102369190611c2f565b60405180910390f35b61025960048036038101906102549190611e52565b610743565b005b61027560048036038101906102709190611fc7565b610759565b005b610291600480360381019061028c9190611c87565b6107bb565b60405161029e9190611c2f565b60405180910390f35b6102c160048036038101906102bc91906120eb565b6107cd565b005b6102dd60048036038101906102d8919061215a565b610824565b6040516102ea9190611b84565b60405180910390f35b60006102fe826108b8565b9050919050565b606060008054610314906121c9565b80601f0160208091040260200160405190810160405280929190818152602001828054610340906121c9565b801561038d5780601f106103625761010080835404028352916020019161038d565b820191906000526020600020905b81548152906001019060200180831161037057829003601f168201915b5050505050905090565b60006103a282610919565b6004600083815260200190815260200160002060009054906101000a900473ffffffffffffffffffffffffffffffffffffffff169050919050565b60006103e882610574565b90508073ffffffffffffffffffffffffffffffffffffffff168373ffffffffffffffffffffffffffffffffffffffff1603610458576040517f08c379a000000000000000000000000000000000000000000000000000000000815260040161044f9061226c565b60405180910390fd5b8073ffffffffffffffffffffffffffffffffffffffff16610477610964565b73ffffffffffffffffffffffffffffffffffffffff1614806104a657506104a5816104a0610964565b610824565b5b6104e5576040517f08c379a00000000000000000000000000000000000000000000000000000000081526004016104dc906122fe565b60405180910390fd5b6104ef838361096c565b505050565b6105056104ff610964565b82610a25565b610544576040517f08c379a000000000000000000000000000000000000000000000000000000000815260040161053b90612390565b60405180910390fd5b61054f838383610aba565b505050565b61056f83838360405180602001604052806000815250610759565b505050565b60008061058083610db3565b9050600073ffffffffffffffffffffffffffffffffffffffff168173ffffffffffffffffffffffffffffffffffffffff16036105f1576040517f08c379a00000000000000000000000000000000000000000000000000000000081526004016105e8906123fc565b60405180910390fd5b80915050919050565b60008073ffffffffffffffffffffffffffffffffffffffff168273ffffffffffffffffffffffffffffffffffffffff160361066a576040517f08c379a00000000000000000000000000000000000000000000000000000000081526004016106619061248e565b60405180910390fd5b600360008373ffffffffffffffffffffffffffffffffffffffff1673ffffffffffffffffffffffffffffffffffffffff168152602001908152602001600020549050919050565b6060600180546106c0906121c9565b80601f01602080910402602001604051908101604052809291908181526020018280546106ec906121c9565b80156107395780601f1061070e57610100808354040283529160200191610739565b820191906000526020600020905b81548152906001019060200180831161071c57829003601f168201915b5050505050905090565b61075561074e610964565b8383610df0565b5050565b61076a610764610964565b83610a25565b6107a9576040517f08c379a00000000000000000000000000000000000000000000000000000000081526004016107a090612390565b60405180910390fd5b6107b584848484610f5c565b50505050565b60606107c682610fb8565b9050919050565b61080b6040518060400160405280600881526020017f536166654d696e740000000000000000000000000000000000000000000000008152506110ca565b6108158383611163565b61081f8282611181565b505050565b6000600560008473ffffffffffffffffffffffffffffffffffffffff1673ffffffffffffffffffffffffffffffffffffffff16815260200190815260200160002060008373ffffffffffffffffffffffffffffffffffffffff1673ffffffffffffffffffffffffffffffffffffffff16815260200190815260200160002060009054906101000a900460ff16905092915050565b6000634906490660e01b7bffffffffffffffffffffffffffffffffffffffffffffffffffffffff1916827bffffffffffffffffffffffffffffffffffffffffffffffffffffffff19161480610912575061091182611225565b5b9050919050565b61092281611307565b610961576040517f08c379a0000000000000000000000000000000000000000000000000000000008152600401610958906123fc565b60405180910390fd5b50565b600033905090565b816004600083815260200190815260200160002060006101000a81548173ffffffffffffffffffffffffffffffffffffffff021916908373ffffffffffffffffffffffffffffffffffffffff160217905550808273ffffffffffffffffffffffffffffffffffffffff166109df83610574565b73ffffffffffffffffffffffffffffffffffffffff167f8c5be1e5ebec7d5bd14f71427d1e84f3dd0314c0f7b2291e5b200ac8c7c3b92560405160405180910390a45050565b600080610a3183610574565b90508073ffffffffffffffffffffffffffffffffffffffff168473ffffffffffffffffffffffffffffffffffffffff161480610a735750610a728185610824565b5b80610ab157508373ffffffffffffffffffffffffffffffffffffffff16610a9984610397565b73ffffffffffffffffffffffffffffffffffffffff16145b91505092915050565b8273ffffffffffffffffffffffffffffffffffffffff16610ada82610574565b73ffffffffffffffffffffffffffffffffffffffff1614610b30576040517f08c379a0000000000000000000000000000000000000000000000000000000008152600401610b2790612520565b60405180910390fd5b600073ffffffffffffffffffffffffffffffffffffffff168273ffffffffffffffffffffffffffffffffffffffff1603610b9f576040517f08c379a0000000000000000000000000000000000000000000000000000000008152600401610b96906125b2565b60405180910390fd5b610bac8383836001611348565b8273ffffffffffffffffffffffffffffffffffffffff16610bcc82610574565b73ffffffffffffffffffffffffffffffffffffffff1614610c22576040517f08c379a0000000000000000000000000000000000000000000000000000000008152600401610c1990612520565b60405180910390fd5b6004600082815260200190815260200160002060006101000a81549073ffffffffffffffffffffffffffffffffffffffff02191690556001600360008573ffffffffffffffffffffffffffffffffffffffff1673ffffffffffffffffffffffffffffffffffffffff168152602001908152602001600020600082825403925050819055506001600360008473ffffffffffffffffffffffffffffffffffffffff1673ffffffffffffffffffffffffffffffffffffffff16815260200190815260200160002060008282540192505081905550816002600083815260200190815260200160002060006101000a81548173ffffffffffffffffffffffffffffffffffffffff021916908373ffffffffffffffffffffffffffffffffffffffff160217905550808273ffffffffffffffffffffffffffffffffffffffff168473ffffffffffffffffffffffffffffffffffffffff167fddf252ad1be2c89b69c2b068fc378daa952ba7f163c4a11628f55a4df523b3ef60405160405180910390a4610dae838383600161134e565b505050565b60006002600083815260200190815260200160002060009054906101000a900473ffffffffffffffffffffffffffffffffffffffff169050919050565b8173ffffffffffffffffffffffffffffffffffffffff168373ffffffffffffffffffffffffffffffffffffffff1603610e5e576040517f08c379a0000000000000000000000000000000000000000000000000000000008152600401610e559061261e565b60405180910390fd5b80600560008573ffffffffffffffffffffffffffffffffffffffff1673ffffffffffffffffffffffffffffffffffffffff16815260200190815260200160002060008473ffffffffffffffffffffffffffffffffffffffff1673ffffffffffffffffffffffffffffffffffffffff16815260200190815260200160002060006101000a81548160ff0219169083151502179055508173ffffffffffffffffffffffffffffffffffffffff168373ffffffffffffffffffffffffffffffffffffffff167f17307eab39ab6107e8899845ad3d59bd9653f200f220920489ca2b5937696c3183604051610f4f9190611b84565b60405180910390a3505050565b610f67848484610aba565b610f7384848484611354565b610fb2576040517f08c379a0000000000000000000000000000000000000000000000000000000008152600401610fa9906126b0565b60405180910390fd5b50505050565b6060610fc382610919565b6000600660008481526020019081526020016000208054610fe3906121c9565b80601f016020809104026020016040519081016040528092919081815260200182805461100f906121c9565b801561105c5780601f106110315761010080835404028352916020019161105c565b820191906000526020600020905b81548152906001019060200180831161103f57829003601f168201915b50505050509050600061106d6114db565b905060008151036110825781925050506110c5565b6000825111156110b757808260405160200161109f92919061270c565b604051602081830303815290604052925050506110c5565b6110c0846114f2565b925050505b919050565b611160816040516024016110de9190611c2f565b6040516020818303038152906040527f41304fac000000000000000000000000000000000000000000000000000000007bffffffffffffffffffffffffffffffffffffffffffffffffffffffff19166020820180517bffffffffffffffffffffffffffffffffffffffffffffffffffffffff838183161783525050505061155a565b50565b61117d828260405180602001604052806000815250611574565b5050565b61118a82611307565b6111c9576040517f08c379a00000000000000000000000000000000000000000000000000000000081526004016111c0906127a2565b60405180910390fd5b806006600084815260200190815260200160002090816111e9919061296e565b507ff8e1a15aba9398e019f0b49df1a4fde98ee17ae345cb5f6b5e2c27f5033e8ce7826040516112199190611e0b565b60405180910390a15050565b60007f80ac58cd000000000000000000000000000000000000000000000000000000007bffffffffffffffffffffffffffffffffffffffffffffffffffffffff1916827bffffffffffffffffffffffffffffffffffffffffffffffffffffffff191614806112f057507f5b5e139f000000000000000000000000000000000000000000000000000000007bffffffffffffffffffffffffffffffffffffffffffffffffffffffff1916827bffffffffffffffffffffffffffffffffffffffffffffffffffffffff1916145b8061130057506112ff826115cf565b5b9050919050565b60008073ffffffffffffffffffffffffffffffffffffffff1661132983610db3565b73ffffffffffffffffffffffffffffffffffffffff1614159050919050565b50505050565b50505050565b60006113758473ffffffffffffffffffffffffffffffffffffffff16611639565b156114ce578373ffffffffffffffffffffffffffffffffffffffff1663150b7a0261139e610964565b8786866040518563ffffffff1660e01b81526004016113c09493929190612a95565b6020604051808303816000875af19250505080156113fc57506040513d601f19601f820116820180604052508101906113f99190612af6565b60015b61147e573d806000811461142c576040519150601f19603f3d011682016040523d82523d6000602084013e611431565b606091505b506000815103611476576040517f08c379a000000000000000000000000000000000000000000000000000000000815260040161146d906126b0565b60405180910390fd5b805181602001fd5b63150b7a0260e01b7bffffffffffffffffffffffffffffffffffffffffffffffffffffffff1916817bffffffffffffffffffffffffffffffffffffffffffffffffffffffff1916149150506114d3565b600190505b949350505050565b606060405180602001604052806000815250905090565b60606114fd82610919565b60006115076114db565b905060008151116115275760405180602001604052806000815250611552565b806115318461165c565b60405160200161154292919061270c565b6040516020818303038152906040525b915050919050565b6115718161156961172a61174b565b63ffffffff16565b50565b61157e8383611756565b61158b6000848484611354565b6115ca576040517f08c379a00000000000000000000000000000000000000000000000000000000081526004016115c1906126b0565b60405180910390fd5b505050565b60007f01ffc9a7000000000000000000000000000000000000000000000000000000007bffffffffffffffffffffffffffffffffffffffffffffffffffffffff1916827bffffffffffffffffffffffffffffffffffffffffffffffffffffffff1916149050919050565b6000808273ffffffffffffffffffffffffffffffffffffffff163b119050919050565b60606000600161166b84611973565b01905060008167ffffffffffffffff81111561168a57611689611e9c565b5b6040519080825280601f01601f1916602001820160405280156116bc5781602001600182028036833780820191505090505b509050600082602001820190505b60011561171f578080600190039150507f3031323334353637383961626364656600000000000000000000000000000000600a86061a8153600a858161171357611712612b23565b5b049450600085036116ca575b819350505050919050565b60006a636f6e736f6c652e6c6f679050600080835160208501845afa505050565b611ac6819050919050565b600073ffffffffffffffffffffffffffffffffffffffff168273ffffffffffffffffffffffffffffffffffffffff16036117c5576040517f08c379a00000000000000000000000000000000000000000000000000000000081526004016117bc90612b9e565b60405180910390fd5b6117ce81611307565b1561180e576040517f08c379a000000000000000000000000000000000000000000000000000000000815260040161180590612c0a565b60405180910390fd5b61181c600083836001611348565b61182581611307565b15611865576040517f08c379a000000000000000000000000000000000000000000000000000000000815260040161185c90612c0a565b60405180910390fd5b6001600360008473ffffffffffffffffffffffffffffffffffffffff1673ffffffffffffffffffffffffffffffffffffffff16815260200190815260200160002060008282540192505081905550816002600083815260200190815260200160002060006101000a81548173ffffffffffffffffffffffffffffffffffffffff021916908373ffffffffffffffffffffffffffffffffffffffff160217905550808273ffffffffffffffffffffffffffffffffffffffff16600073ffffffffffffffffffffffffffffffffffffffff167fddf252ad1be2c89b69c2b068fc378daa952ba7f163c4a11628f55a4df523b3ef60405160405180910390a461196f60008383600161134e565b5050565b600080600090507a184f03e93ff9f4daa797ed6e38ed64bf6a1f01000000000000000083106119d1577a184f03e93ff9f4daa797ed6e38ed64bf6a1f01000000000000000083816119c7576119c6612b23565b5b0492506040810190505b6d04ee2d6d415b85acef81000000008310611a0e576d04ee2d6d415b85acef81000000008381611a0457611a03612b23565b5b0492506020810190505b662386f26fc100008310611a3d57662386f26fc100008381611a3357611a32612b23565b5b0492506010810190505b6305f5e1008310611a66576305f5e1008381611a5c57611a5b612b23565b5b0492506008810190505b6127108310611a8b576127108381611a8157611a80612b23565b5b0492506004810190505b60648310611aae5760648381611aa457611aa3612b23565b5b0492506002810190505b600a8310611abd576001810190505b80915050919050565b611ace612c2a565b565b6000604051905090565b600080fd5b600080fd5b60007fffffffff0000000000000000000000000000000000000000000000000000000082169050919050565b611b1981611ae4565b8114611b2457600080fd5b50565b600081359050611b3681611b10565b92915050565b600060208284031215611b5257611b51611ada565b5b6000611b6084828501611b27565b91505092915050565b60008115159050919050565b611b7e81611b69565b82525050565b6000602082019050611b996000830184611b75565b92915050565b600081519050919050565b600082825260208201905092915050565b60005b83811015611bd9578082015181840152602081019050611bbe565b60008484015250505050565b6000601f19601f8301169050919050565b6000611c0182611b9f565b611c0b8185611baa565b9350611c1b818560208601611bbb565b611c2481611be5565b840191505092915050565b60006020820190508181036000830152611c498184611bf6565b905092915050565b6000819050919050565b611c6481611c51565b8114611c6f57600080fd5b50565b600081359050611c8181611c5b565b92915050565b600060208284031215611c9d57611c9c611ada565b5b6000611cab84828501611c72565b91505092915050565b600073ffffffffffffffffffffffffffffffffffffffff82169050919050565b6000611cdf82611cb4565b9050919050565b611cef81611cd4565b82525050565b6000602082019050611d0a6000830184611ce6565b92915050565b611d1981611cd4565b8114611d2457600080fd5b50565b600081359050611d3681611d10565b92915050565b60008060408385031215611d5357611d52611ada565b5b6000611d6185828601611d27565b9250506020611d7285828601611c72565b9150509250929050565b600080600060608486031215611d9557611d94611ada565b5b6000611da386828701611d27565b9350506020611db486828701611d27565b9250506040611dc586828701611c72565b9150509250925092565b600060208284031215611de557611de4611ada565b5b6000611df384828501611d27565b91505092915050565b611e0581611c51565b82525050565b6000602082019050611e206000830184611dfc565b92915050565b611e2f81611b69565b8114611e3a57600080fd5b50565b600081359050611e4c81611e26565b92915050565b60008060408385031215611e6957611e68611ada565b5b6000611e7785828601611d27565b9250506020611e8885828601611e3d565b9150509250929050565b600080fd5b600080fd5b7f4e487b7100000000000000000000000000000000000000000000000000000000600052604160045260246000fd5b611ed482611be5565b810181811067ffffffffffffffff82111715611ef357611ef2611e9c565b5b80604052505050565b6000611f06611ad0565b9050611f128282611ecb565b919050565b600067ffffffffffffffff821115611f3257611f31611e9c565b5b611f3b82611be5565b9050602081019050919050565b82818337600083830152505050565b6000611f6a611f6584611f17565b611efc565b905082815260208101848484011115611f8657611f85611e97565b5b611f91848285611f48565b509392505050565b600082601f830112611fae57611fad611e92565b5b8135611fbe848260208601611f57565b91505092915050565b60008060008060808587031215611fe157611fe0611ada565b5b6000611fef87828801611d27565b945050602061200087828801611d27565b935050604061201187828801611c72565b925050606085013567ffffffffffffffff81111561203257612031611adf565b5b61203e87828801611f99565b91505092959194509250565b600067ffffffffffffffff82111561206557612064611e9c565b5b61206e82611be5565b9050602081019050919050565b600061208e6120898461204a565b611efc565b9050828152602081018484840111156120aa576120a9611e97565b5b6120b5848285611f48565b509392505050565b600082601f8301126120d2576120d1611e92565b5b81356120e284826020860161207b565b91505092915050565b60008060006060848603121561210457612103611ada565b5b600061211286828701611d27565b935050602061212386828701611c72565b925050604084013567ffffffffffffffff81111561214457612143611adf565b5b612150868287016120bd565b9150509250925092565b6000806040838503121561217157612170611ada565b5b600061217f85828601611d27565b925050602061219085828601611d27565b9150509250929050565b7f4e487b7100000000000000000000000000000000000000000000000000000000600052602260045260246000fd5b600060028204905060018216806121e157607f821691505b6020821081036121f4576121f361219a565b5b50919050565b7f4552433732313a20617070726f76616c20746f2063757272656e74206f776e6560008201527f7200000000000000000000000000000000000000000000000000000000000000602082015250565b6000612256602183611baa565b9150612261826121fa565b604082019050919050565b6000602082019050818103600083015261228581612249565b9050919050565b7f4552433732313a20617070726f76652063616c6c6572206973206e6f7420746f60008201527f6b656e206f776e6572206f7220617070726f76656420666f7220616c6c000000602082015250565b60006122e8603d83611baa565b91506122f38261228c565b604082019050919050565b60006020820190508181036000830152612317816122db565b9050919050565b7f4552433732313a2063616c6c6572206973206e6f7420746f6b656e206f776e6560008201527f72206f7220617070726f76656400000000000000000000000000000000000000602082015250565b600061237a602d83611baa565b91506123858261231e565b604082019050919050565b600060208201905081810360008301526123a98161236d565b9050919050565b7f4552433732313a20696e76616c696420746f6b656e2049440000000000000000600082015250565b60006123e6601883611baa565b91506123f1826123b0565b602082019050919050565b60006020820190508181036000830152612415816123d9565b9050919050565b7f4552433732313a2061646472657373207a65726f206973206e6f74206120766160008201527f6c6964206f776e65720000000000000000000000000000000000000000000000602082015250565b6000612478602983611baa565b91506124838261241c565b604082019050919050565b600060208201905081810360008301526124a78161246b565b9050919050565b7f4552433732313a207472616e736665722066726f6d20696e636f72726563742060008201527f6f776e6572000000000000000000000000000000000000000000000000000000602082015250565b600061250a602583611baa565b9150612515826124ae565b604082019050919050565b60006020820190508181036000830152612539816124fd565b9050919050565b7f4552433732313a207472616e7366657220746f20746865207a65726f2061646460008201527f7265737300000000000000000000000000000000000000000000000000000000602082015250565b600061259c602483611baa565b91506125a782612540565b604082019050919050565b600060208201905081810360008301526125cb8161258f565b9050919050565b7f4552433732313a20617070726f766520746f2063616c6c657200000000000000600082015250565b6000612608601983611baa565b9150612613826125d2565b602082019050919050565b60006020820190508181036000830152612637816125fb565b9050919050565b7f4552433732313a207472616e7366657220746f206e6f6e20455243373231526560008201527f63656976657220696d706c656d656e7465720000000000000000000000000000602082015250565b600061269a603283611baa565b91506126a58261263e565b604082019050919050565b600060208201905081810360008301526126c98161268d565b9050919050565b600081905092915050565b60006126e682611b9f565b6126f081856126d0565b9350612700818560208601611bbb565b80840191505092915050565b600061271882856126db565b915061272482846126db565b91508190509392505050565b7f45524337323155524953746f726167653a2055524920736574206f66206e6f6e60008201527f6578697374656e7420746f6b656e000000000000000000000000000000000000602082015250565b600061278c602e83611baa565b915061279782612730565b604082019050919050565b600060208201905081810360008301526127bb8161277f565b9050919050565b60008190508160005260206000209050919050565b60006020601f8301049050919050565b600082821b905092915050565b6000600883026128247fffffffffffffffffffffffffffffffffffffffffffffffffffffffffffffffff826127e7565b61282e86836127e7565b95508019841693508086168417925050509392505050565b6000819050919050565b600061286b61286661286184611c51565b612846565b611c51565b9050919050565b6000819050919050565b61288583612850565b61289961289182612872565b8484546127f4565b825550505050565b600090565b6128ae6128a1565b6128b981848461287c565b505050565b5b818110156128dd576128d26000826128a6565b6001810190506128bf565b5050565b601f821115612922576128f3816127c2565b6128fc846127d7565b8101602085101561290b578190505b61291f612917856127d7565b8301826128be565b50505b505050565b600082821c905092915050565b600061294560001984600802612927565b1980831691505092915050565b600061295e8383612934565b9150826002028217905092915050565b61297782611b9f565b67ffffffffffffffff8111156129905761298f611e9c565b5b61299a82546121c9565b6129a58282856128e1565b600060209050601f8311600181146129d857600084156129c6578287015190505b6129d08582612952565b865550612a38565b601f1984166129e6866127c2565b60005b82811015612a0e578489015182556001820191506020850194506020810190506129e9565b86831015612a2b5784890151612a27601f891682612934565b8355505b6001600288020188555050505b505050505050565b600081519050919050565b600082825260208201905092915050565b6000612a6782612a40565b612a718185612a4b565b9350612a81818560208601611bbb565b612a8a81611be5565b840191505092915050565b6000608082019050612aaa6000830187611ce6565b612ab76020830186611ce6565b612ac46040830185611dfc565b8181036060830152612ad68184612a5c565b905095945050505050565b600081519050612af081611b10565b92915050565b600060208284031215612b0c57612b0b611ada565b5b6000612b1a84828501612ae1565b91505092915050565b7f4e487b7100000000000000000000000000000000000000000000000000000000600052601260045260246000fd5b7f4552433732313a206d696e7420746f20746865207a65726f2061646472657373600082015250565b6000612b88602083611baa565b9150612b9382612b52565b602082019050919050565b60006020820190508181036000830152612bb781612b7b565b9050919050565b7f4552433732313a20746f6b656e20616c7265616479206d696e74656400000000600082015250565b6000612bf4601c83611baa565b9150612bff82612bbe565b602082019050919050565b60006020820190508181036000830152612c2381612be7565b9050919050565b7f4e487b7100000000000000000000000000000000000000000000000000000000600052605160045260246000fdfea2646970667358221220074c895e6f02f3f76faa880533d34721b34dd4d6fd4b60cf51fa8d7b09d4b98264736f6c63430008130033",
  "linkReferences": {},
  "deployedLinkReferences": {}
}