{
  "_format": "hh-sol-artifact-1",
  "contractName": "Muyu",
  "sourceName": "contracts/Muyu.sol",
  "abi": [
    {
      "inputs": [],
      "stateMutability": "nonpayable",
      "type": "constructor"
    },
    {
      "inputs": [],
      "name": "getGongde",
      "outputs": [
        {
          "internalType": "uint256",
          "name": "",
          "type": "uint256"
        }
      ],
      "stateMutability": "view",
      "type": "function"
    },
    {
      "inputs": [],
      "name": "qiao",
      "outputs": [],
      "stateMutability": "nonpayable",
      "type": "function"
    }
  ],
  "bytecode": "0x608060405234801561001057600080fd5b5060008081905550610277806100276000396000f3fe608060405234801561001057600080fd5b50600436106100365760003560e01c8063205b9d041461003b578063ec3f351a14610059575b600080fd5b610043610063565b6040516100509190610194565b60405180910390f35b61006161006c565b005b60008054905090565b600160008082825461007e91906101de565b92505081905550610090600054610092565b565b610128816040516024016100a69190610194565b6040516020818303038152906040527ff82c50f1000000000000000000000000000000000000000000000000000000007bffffffffffffffffffffffffffffffffffffffffffffffffffffffff19166020820180517bffffffffffffffffffffffffffffffffffffffffffffffffffffffff838183161783525050505061012b565b50565b6101428161013a610145610166565b63ffffffff16565b50565b60006a636f6e736f6c652e6c6f679050600080835160208501845afa505050565b610171819050919050565b610179610212565b565b6000819050919050565b61018e8161017b565b82525050565b60006020820190506101a96000830184610185565b92915050565b7f4e487b7100000000000000000000000000000000000000000000000000000000600052601160045260246000fd5b60006101e98261017b565b91506101f48361017b565b925082820190508082111561020c5761020b6101af565b5b92915050565b7f4e487b7100000000000000000000000000000000000000000000000000000000600052605160045260246000fdfea26469706673582212205316ab92a85b51fc427e07657fdbb0b4b6ded7f8d1edfc3ea981b4151024734864736f6c63430008130033",
  "linkReferences": {},
  "deployedLinkReferences": {}
}